{
  "_format": "hh-sol-artifact-1",
  "contractName": "FeatureDatabase",
  "sourceName": "contracts/FeatureDatabase.sol",
  "abi": [
    {
      "inputs": [],
      "stateMutability": "nonpayable",
      "type": "constructor"
    },
    {
      "inputs": [
        {
          "internalType": "uint32",
          "name": "",
          "type": "uint32"
        }
      ],
      "name": "features",
      "outputs": [
        {
          "internalType": "string",
          "name": "title",
          "type": "string"
        },
        {
          "internalType": "string",
          "name": "description",
          "type": "string"
        },
        {
          "internalType": "string",
          "name": "status",
          "type": "string"
        },
        {
          "internalType": "uint8",
          "name": "priority",
          "type": "uint8"
        },
        {
          "internalType": "uint32",
          "name": "expiresAt",
          "type": "uint32"
        }
      ],
      "stateMutability": "view",
      "type": "function"
    },
    {
      "inputs": [],
      "name": "getAmount",
      "outputs": [
        {
          "internalType": "uint256",
          "name": "",
          "type": "uint256"
        }
      ],
      "stateMutability": "view",
      "type": "function"
    },
    {
      "inputs": [
        {
          "internalType": "uint32",
          "name": "id",
          "type": "uint32"
        }
      ],
      "name": "remove",
      "outputs": [],
      "stateMutability": "nonpayable",
      "type": "function"
    },
    {
      "inputs": [
        {
          "internalType": "uint32",
          "name": "id",
          "type": "uint32"
        },
        {
          "components": [
            {
              "internalType": "string",
              "name": "title",
              "type": "string"
            },
            {
              "internalType": "string",
              "name": "description",
              "type": "string"
            },
            {
              "internalType": "string",
              "name": "status",
              "type": "string"
            },
            {
              "internalType": "uint8",
              "name": "priority",
              "type": "uint8"
            },
            {
              "internalType": "uint32",
              "name": "expiresAt",
              "type": "uint32"
            }
          ],
          "internalType": "struct FeatureDatabase.Feature",
          "name": "feat",
          "type": "tuple"
        }
      ],
      "name": "save",
      "outputs": [],
      "stateMutability": "nonpayable",
      "type": "function"
    },
    {
      "inputs": [
        {
          "components": [
            {
              "internalType": "string",
              "name": "title",
              "type": "string"
            },
            {
              "internalType": "string",
              "name": "description",
              "type": "string"
            },
            {
              "internalType": "string",
              "name": "status",
              "type": "string"
            },
            {
              "internalType": "uint8",
              "name": "priority",
              "type": "uint8"
            },
            {
              "internalType": "uint32",
              "name": "expiresAt",
              "type": "uint32"
            }
          ],
          "internalType": "struct FeatureDatabase.Feature",
          "name": "feat",
          "type": "tuple"
        }
      ],
      "name": "store",
      "outputs": [],
      "stateMutability": "nonpayable",
      "type": "function"
    }
  ],
  "bytecode": "0x60a060405260006001556000600260006101000a81548163ffffffff021916908363ffffffff160217905550348015603657600080fd5b503373ffffffffffffffffffffffffffffffffffffffff1660808173ffffffffffffffffffffffffffffffffffffffff168152505060805161158c610086600039600061011a015261158c6000f3fe608060405234801561001057600080fd5b50600436106100565760003560e01c8062d84fd81461005b578063246570f014610077578063d321fe2914610093578063e5f9e303146100b1578063f7518acd146100cd575b600080fd5b61007560048036038101906100709190610be7565b610101565b005b610091600480360381019061008c9190610e7d565b610328565b005b61009b6107ba565b6040516100a89190610ef2565b60405180910390f35b6100cb60048036038101906100c69190610f0d565b6107c4565b005b6100e760048036038101906100e29190610be7565b6108de565b6040516100f8959493929190610ff3565b60405180910390f35b3373ffffffffffffffffffffffffffffffffffffffff167f000000000000000000000000000000000000000000000000000000000000000073ffffffffffffffffffffffffffffffffffffffff161461018f576040517f08c379a0000000000000000000000000000000000000000000000000000000008152600401610186906110cd565b60405180910390fd5b6102516000808363ffffffff1663ffffffff16815260200190815260200160002060000180546101be9061111c565b80601f01602080910402602001604051908101604052809291908181526020018280546101ea9061111c565b80156102375780601f1061020c57610100808354040283529160200191610237565b820191906000526020600020905b81548152906001019060200180831161021a57829003601f168201915b505050505060405180602001604052806000815250610ac9565b15610291576040517f08c379a000000000000000000000000000000000000000000000000000000000815260040161028890611199565b60405180910390fd5b6000808263ffffffff1663ffffffff168152602001908152602001600020600080820160006102c09190610b3a565b6001820160006102d09190610b3a565b6002820160006102e09190610b3a565b6003820160006101000a81549060ff02191690556003820160016101000a81549063ffffffff0219169055505060016000815480929190610320906111e8565b919050555050565b60008060008463ffffffff1663ffffffff1681526020019081526020016000206040518060a00160405290816000820180546103639061111c565b80601f016020809104026020016040519081016040528092919081815260200182805461038f9061111c565b80156103dc5780601f106103b1576101008083540402835291602001916103dc565b820191906000526020600020905b8154815290600101906020018083116103bf57829003601f168201915b505050505081526020016001820180546103f59061111c565b80601f01602080910402602001604051908101604052809291908181526020018280546104219061111c565b801561046e5780601f106104435761010080835404028352916020019161046e565b820191906000526020600020905b81548152906001019060200180831161045157829003601f168201915b505050505081526020016002820180546104879061111c565b80601f01602080910402602001604051908101604052809291908181526020018280546104b39061111c565b80156105005780601f106104d557610100808354040283529160200191610500565b820191906000526020600020905b8154815290600101906020018083116104e357829003601f168201915b505050505081526020016003820160009054906101000a900460ff1660ff1660ff1681526020016003820160019054906101000a900463ffffffff1663ffffffff1663ffffffff1681525050905061056b816000015160405180602001604052806000815250610ac9565b156105ab576040517f08c379a00000000000000000000000000000000000000000000000000000000081526004016105a290611199565b60405180910390fd5b6105bd81600001518360000151610ac9565b1580156105e457506105e2826000015160405180602001604052806000815250610ac9565b155b1561061d5781600001516000808563ffffffff1663ffffffff168152602001908152602001600020600001908161061b91906113bd565b505b61062f81602001518360200151610ac9565b1580156106565750610654826020015160405180602001604052806000815250610ac9565b155b1561068f5781602001516000808563ffffffff1663ffffffff168152602001908152602001600020600101908161068d91906113bd565b505b6106a181604001518360400151610ac9565b1580156106c857506106c6826040015160405180602001604052806000815250610ac9565b155b156107015781604001516000808563ffffffff1663ffffffff16815260200190815260200160002060020190816106ff91906113bd565b505b816060015160ff16816060015160ff16146107555781606001516000808563ffffffff1663ffffffff16815260200190815260200160002060030160006101000a81548160ff021916908360ff1602179055505b816080015163ffffffff16816080015163ffffffff16146107b55781608001516000808563ffffffff1663ffffffff16815260200190815260200160002060030160016101000a81548163ffffffff021916908363ffffffff1602179055505b505050565b6000600154905090565b6002600081819054906101000a900463ffffffff16809291906107e69061148f565b91906101000a81548163ffffffff021916908363ffffffff1602179055505080600080600260009054906101000a900463ffffffff1663ffffffff1663ffffffff168152602001908152602001600020600082015181600001908161084b91906113bd565b50602082015181600101908161086191906113bd565b50604082015181600201908161087791906113bd565b5060608201518160030160006101000a81548160ff021916908360ff16021790555060808201518160030160016101000a81548163ffffffff021916908363ffffffff160217905550905050600160008154809291906108d6906114bb565b919050555050565b60006020528060005260406000206000915090508060000180546109019061111c565b80601f016020809104026020016040519081016040528092919081815260200182805461092d9061111c565b801561097a5780601f1061094f5761010080835404028352916020019161097a565b820191906000526020600020905b81548152906001019060200180831161095d57829003601f168201915b50505050509080600101805461098f9061111c565b80601f01602080910402602001604051908101604052809291908181526020018280546109bb9061111c565b8015610a085780601f106109dd57610100808354040283529160200191610a08565b820191906000526020600020905b8154815290600101906020018083116109eb57829003601f168201915b505050505090806002018054610a1d9061111c565b80601f0160208091040260200160405190810160405280929190818152602001828054610a499061111c565b8015610a965780601f10610a6b57610100808354040283529160200191610a96565b820191906000526020600020905b815481529060010190602001808311610a7957829003601f168201915b5050505050908060030160009054906101000a900460ff16908060030160019054906101000a900463ffffffff16905085565b600080839050600083905080518251148015610b30575083604051602001610af1919061153f565b6040516020818303038152906040528051906020012085604051602001610b18919061153f565b60405160208183030381529060405280519060200120145b9250505092915050565b508054610b469061111c565b6000825580601f10610b585750610b77565b601f016020900490600052602060002090810190610b769190610b7a565b5b50565b5b80821115610b93576000816000905550600101610b7b565b5090565b6000604051905090565b600080fd5b600080fd5b600063ffffffff82169050919050565b610bc481610bab565b8114610bcf57600080fd5b50565b600081359050610be181610bbb565b92915050565b600060208284031215610bfd57610bfc610ba1565b5b6000610c0b84828501610bd2565b91505092915050565b600080fd5b6000601f19601f8301169050919050565b7f4e487b7100000000000000000000000000000000000000000000000000000000600052604160045260246000fd5b610c6282610c19565b810181811067ffffffffffffffff82111715610c8157610c80610c2a565b5b80604052505050565b6000610c94610b97565b9050610ca08282610c59565b919050565b600080fd5b600080fd5b600080fd5b600067ffffffffffffffff821115610ccf57610cce610c2a565b5b610cd882610c19565b9050602081019050919050565b82818337600083830152505050565b6000610d07610d0284610cb4565b610c8a565b905082815260208101848484011115610d2357610d22610caf565b5b610d2e848285610ce5565b509392505050565b600082601f830112610d4b57610d4a610caa565b5b8135610d5b848260208601610cf4565b91505092915050565b600060ff82169050919050565b610d7a81610d64565b8114610d8557600080fd5b50565b600081359050610d9781610d71565b92915050565b600060a08284031215610db357610db2610c14565b5b610dbd60a0610c8a565b9050600082013567ffffffffffffffff811115610ddd57610ddc610ca5565b5b610de984828501610d36565b600083015250602082013567ffffffffffffffff811115610e0d57610e0c610ca5565b5b610e1984828501610d36565b602083015250604082013567ffffffffffffffff811115610e3d57610e3c610ca5565b5b610e4984828501610d36565b6040830152506060610e5d84828501610d88565b6060830152506080610e7184828501610bd2565b60808301525092915050565b60008060408385031215610e9457610e93610ba1565b5b6000610ea285828601610bd2565b925050602083013567ffffffffffffffff811115610ec357610ec2610ba6565b5b610ecf85828601610d9d565b9150509250929050565b6000819050919050565b610eec81610ed9565b82525050565b6000602082019050610f076000830184610ee3565b92915050565b600060208284031215610f2357610f22610ba1565b5b600082013567ffffffffffffffff811115610f4157610f40610ba6565b5b610f4d84828501610d9d565b91505092915050565b600081519050919050565b600082825260208201905092915050565b60005b83811015610f90578082015181840152602081019050610f75565b60008484015250505050565b6000610fa782610f56565b610fb18185610f61565b9350610fc1818560208601610f72565b610fca81610c19565b840191505092915050565b610fde81610d64565b82525050565b610fed81610bab565b82525050565b600060a082019050818103600083015261100d8188610f9c565b905081810360208301526110218187610f9c565b905081810360408301526110358186610f9c565b90506110446060830185610fd5565b6110516080830184610fe4565b9695505050505050565b7f4f6e6c7920746865206f776e65722063616e2072656d6f76652066656174757260008201527f6573000000000000000000000000000000000000000000000000000000000000602082015250565b60006110b7602283610f61565b91506110c28261105b565b604082019050919050565b600060208201905081810360008301526110e6816110aa565b9050919050565b7f4e487b7100000000000000000000000000000000000000000000000000000000600052602260045260246000fd5b6000600282049050600182168061113457607f821691505b602082108103611147576111466110ed565b5b50919050565b7f4665617475726520646f6573206e6f7420657869737400000000000000000000600082015250565b6000611183601683610f61565b915061118e8261114d565b602082019050919050565b600060208201905081810360008301526111b281611176565b9050919050565b7f4e487b7100000000000000000000000000000000000000000000000000000000600052601160045260246000fd5b60006111f382610ed9565b915060008203611206576112056111b9565b5b600182039050919050565b60008190508160005260206000209050919050565b60006020601f8301049050919050565b600082821b905092915050565b6000600883026112737fffffffffffffffffffffffffffffffffffffffffffffffffffffffffffffffff82611236565b61127d8683611236565b95508019841693508086168417925050509392505050565b6000819050919050565b60006112ba6112b56112b084610ed9565b611295565b610ed9565b9050919050565b6000819050919050565b6112d48361129f565b6112e86112e0826112c1565b848454611243565b825550505050565b600090565b6112fd6112f0565b6113088184846112cb565b505050565b5b8181101561132c576113216000826112f5565b60018101905061130e565b5050565b601f8211156113715761134281611211565b61134b84611226565b8101602085101561135a578190505b61136e61136685611226565b83018261130d565b50505b505050565b600082821c905092915050565b600061139460001984600802611376565b1980831691505092915050565b60006113ad8383611383565b9150826002028217905092915050565b6113c682610f56565b67ffffffffffffffff8111156113df576113de610c2a565b5b6113e9825461111c565b6113f4828285611330565b600060209050601f8311600181146114275760008415611415578287015190505b61141f85826113a1565b865550611487565b601f19841661143586611211565b60005b8281101561145d57848901518255600182019150602085019450602081019050611438565b8683101561147a5784890151611476601f891682611383565b8355505b6001600288020188555050505b505050505050565b600061149a82610bab565b915063ffffffff82036114b0576114af6111b9565b5b600182019050919050565b60006114c682610ed9565b91507fffffffffffffffffffffffffffffffffffffffffffffffffffffffffffffffff82036114f8576114f76111b9565b5b600182019050919050565b600081905092915050565b600061151982610f56565b6115238185611503565b9350611533818560208601610f72565b80840191505092915050565b600061154b828461150e565b91508190509291505056fea264697066735822122073b64358f6a22b788c44ee17dbbd4b65e3138f272e069a3b5e0e350af0ff9e7264736f6c634300081c0033",
  "linkReferences": {},
  "deployedLinkReferences": {}
}